{
  "_format": "hh-sol-artifact-1",
  "contractName": "Counter",
  "sourceName": "contracts/Counter.sol",
  "abi": [
    {
      "inputs": [],
      "name": "count",
      "outputs": [],
      "stateMutability": "nonpayable",
      "type": "function"
    },
    {
      "inputs": [],
      "name": "getCount",
      "outputs": [
        {
          "internalType": "uint32",
          "name": "",
          "type": "uint32"
        }
      ],
      "stateMutability": "view",
      "type": "function"
    }
  ],
  "bytecode": "0x608060405234801561001057600080fd5b50610355806100206000396000f3fe608060405234801561001057600080fd5b50600436106100365760003560e01c806306661abd1461003b578063a87d942c14610045575b600080fd5b610043610063565b005b61004d6100bd565b60405161005a9190610212565b60405180910390f35b60008081548092919061007590610296565b91905055506100bb6040518060400160405280600e81526020017f436f756e746572206973206e6f770000000000000000000000000000000000008152506000546100c6565b565b60008054905090565b61015e82826040516024016100dc9291906101e2565b6040516020818303038152906040527fb60e72cc000000000000000000000000000000000000000000000000000000007bffffffffffffffffffffffffffffffffffffffffffffffffffffffff19166020820180517bffffffffffffffffffffffffffffffffffffffffffffffffffffffff8381831617835250505050610162565b5050565b60008151905060006a636f6e736f6c652e6c6f679050602083016000808483855afa5050505050565b60006101968261022d565b6101a08185610238565b93506101b0818560208601610263565b6101b98161030e565b840191505092915050565b6101cd81610249565b82525050565b6101dc81610253565b82525050565b600060408201905081810360008301526101fc818561018b565b905061020b60208301846101c4565b9392505050565b600060208201905061022760008301846101d3565b92915050565b600081519050919050565b600082825260208201905092915050565b6000819050919050565b600063ffffffff82169050919050565b60005b83811015610281578082015181840152602081019050610266565b83811115610290576000848401525b50505050565b60006102a182610249565b91507fffffffffffffffffffffffffffffffffffffffffffffffffffffffffffffffff8214156102d4576102d36102df565b5b600182019050919050565b7f4e487b7100000000000000000000000000000000000000000000000000000000600052601160045260246000fd5b6000601f19601f830116905091905056fea264697066735822122096044d7fccdc85efcc82fb44cf67c0f0f6a7520844aec27d1e80c9bfceadc28164736f6c63430008070033",
  "linkReferences": {},
  "deployedLinkReferences": {}
}